{"contracts/GrievanceContract.sol":{"GrievanceContractOptimized":{"abi":[{"anonymous":false,"inputs":[{"indexed":true,"internalType":"string","name":"logId","type":"string"},{"indexed":false,"internalType":"string","name":"action","type":"string"},{"indexed":false,"internalType":"string","name":"userId","type":"string"},{"indexed":false,"internalType":"string","name":"complaintId","type":"string"},{"indexed":false,"internalType":"string","name":"details","type":"string"},{"indexed":false,"internalType":"uint256","name":"timestamp","type":"uint256"}],"name":"AuditLogCreated","type":"event"},{"anonymous":false,"inputs":[{"indexed":true,"internalType":"string","name":"complaintId","type":"string"},{"indexed":false,"internalType":"string","name":"assignedTo","type":"string"},{"indexed":false,"internalType":"uint256","name":"timestamp","type":"uint256"}],"name":"ComplaintAssigned","type":"event"},{"anonymous":false,"inputs":[{"indexed":true,"internalType":"string","name":"complaintId","type":"string"},{"indexed":false,"internalType":"string","name":"pin","type":"string"},{"indexed":false,"internalType":"string","name":"district","type":"string"},{"indexed":false,"internalType":"string","name":"city","type":"string"},{"indexed":false,"internalType":"string","name":"locality","type":"string"},{"indexed":false,"internalType":"string","name":"state","type":"string"},{"indexed":false,"internalType":"uint256","name":"timestamp","type":"uint256"}],"name":"ComplaintLocationStored","type":"event"},{"anonymous":false,"inputs":[{"indexed":true,"internalType":"string","name":"complaintId","type":"string"},{"indexed":true,"internalType":"string","name":"complainantId","type":"string"},{"indexed":false,"internalType":"string","name":"categoryId","type":"string"},{"indexed":false,"internalType":"string","name":"subCategory","type":"string"},{"indexed":false,"internalType":"string","name":"department","type":"string"},{"indexed":false,"internalType":"uint8","name":"urgency","type":"uint8"},{"indexed":false,"internalType":"bytes32","name":"descriptionHash","type":"bytes32"},{"indexed":false,"internalType":"bytes32","name":"attachmentHash","type":"bytes32"},{"indexed":false,"internalType":"bytes32","name":"locationHash","type":"bytes32"},{"indexed":false,"internalType":"bool","name":"isPublic","type":"bool"},{"indexed":false,"internalType":"uint256","name":"timestamp","type":"uint256"}],"name":"ComplaintRegistered","type":"event"},{"anonymous":false,"inputs":[{"indexed":true,"internalType":"string","name":"complaintId","type":"string"},{"indexed":false,"internalType":"uint256","name":"timestamp","type":"uint256"}],"name":"ComplaintResolved","type":"event"},{"anonymous":false,"inputs":[{"indexed":true,"internalType":"string","name":"complaintId","type":"string"},{"indexed":false,"internalType":"uint8","name":"oldStatus","type":"uint8"},{"indexed":false,"internalType":"uint8","name":"newStatus","type":"uint8"},{"indexed":false,"internalType":"string","name":"statusName","type":"string"},{"indexed":false,"internalType":"uint256","name":"timestamp","type":"uint256"}],"name":"ComplaintStatusUpdated","type":"event"},{"anonymous":false,"inputs":[{"indexed":true,"internalType":"string","name":"complaintId","type":"string"},{"indexed":false,"internalType":"uint32","name":"newCount","type":"uint32"},{"indexed":false,"internalType":"uint256","name":"timestamp","type":"uint256"}],"name":"UpvoteAdded","type":"event"},{"anonymous":false,"inputs":[{"indexed":true,"internalType":"string","name":"userId","type":"string"},{"indexed":false,"internalType":"string","name":"pin","type":"string"},{"indexed":false,"internalType":"string","name":"district","type":"string"},{"indexed":false,"internalType":"string","name":"city","type":"string"},{"indexed":false,"internalType":"string","name":"state","type":"string"},{"indexed":false,"internalType":"string","name":"municipal","type":"string"},{"indexed":false,"internalType":"uint256","name":"timestamp","type":"uint256"}],"name":"UserLocationStored","type":"event"},{"anonymous":false,"inputs":[{"indexed":true,"internalType":"string","name":"userId","type":"string"},{"indexed":false,"internalType":"string","name":"name","type":"string"},{"indexed":false,"internalType":"string","name":"role","type":"string"},{"indexed":false,"internalType":"bytes32","name":"emailHash","type":"bytes32"},{"indexed":false,"internalType":"bytes32","name":"aadhaarHash","type":"bytes32"},{"indexed":false,"internalType":"bytes32","name":"locationHash","type":"bytes32"},{"indexed":false,"internalType":"uint256","name":"timestamp","type":"uint256"}],"name":"UserRegistered","type":"event"},{"inputs":[{"internalType":"string","name":"_complaintId","type":"string"},{"internalType":"string","name":"_assignedTo","type":"string"}],"name":"assignComplaint","outputs":[],"stateMutability":"nonpayable","type":"function"},{"inputs":[{"internalType":"string","name":"_complaintId","type":"string"}],"name":"checkComplaintExists","outputs":[{"internalType":"bool","name":"","type":"bool"}],"stateMutability":"view","type":"function"},{"inputs":[{"internalType":"string","name":"_userId","type":"string"}],"name":"checkUserExists","outputs":[{"internalType":"bool","name":"","type":"bool"}],"stateMutability":"view","type":"function"},{"inputs":[{"internalType":"bytes32","name":"","type":"bytes32"}],"name":"complaintExists","outputs":[{"internalType":"bool","name":"","type":"bool"}],"stateMutability":"view","type":"function"},{"inputs":[{"internalType":"bytes32","name":"","type":"bytes32"}],"name":"complaints","outputs":[{"internalType":"bytes32","name":"complainantIdHash","type":"bytes32"},{"internalType":"bytes32","name":"descriptionHash","type":"bytes32"},{"internalType":"bytes32","name":"attachmentHash","type":"bytes32"},{"internalType":"bytes32","name":"locationHash","type":"bytes32"},{"internalType":"uint64","name":"submissionDate","type":"uint64"},{"internalType":"uint64","name":"lastUpdated","type":"uint64"},{"internalType":"uint32","name":"upvoteCount","type":"uint32"},{"internalType":"uint8","name":"urgencyLevel","type":"uint8"},{"internalType":"uint8","name":"statusCode","type":"uint8"},{"internalType":"bool","name":"isPublic","type":"bool"}],"stateMutability":"view","type":"function"},{"inputs":[{"internalType":"string","name":"_logId","type":"string"},{"internalType":"string","name":"_action","type":"string"},{"internalType":"string","name":"_userId","type":"string"},{"internalType":"string","name":"_complaintId","type":"string"},{"internalType":"string","name":"_details","type":"string"}],"name":"createAuditLog","outputs":[],"stateMutability":"nonpayable","type":"function"},{"inputs":[{"internalType":"string","name":"_complaintId","type":"string"}],"name":"getComplaint","outputs":[{"components":[{"internalType":"bytes32","name":"complainantIdHash","type":"bytes32"},{"internalType":"bytes32","name":"descriptionHash","type":"bytes32"},{"internalType":"bytes32","name":"attachmentHash","type":"bytes32"},{"internalType":"bytes32","name":"locationHash","type":"bytes32"},{"internalType":"uint64","name":"submissionDate","type":"uint64"},{"internalType":"uint64","name":"lastUpdated","type":"uint64"},{"internalType":"uint32","name":"upvoteCount","type":"uint32"},{"internalType":"uint8","name":"urgencyLevel","type":"uint8"},{"internalType":"uint8","name":"statusCode","type":"uint8"},{"internalType":"bool","name":"isPublic","type":"bool"}],"internalType":"struct GrievanceContractOptimized.Complaint","name":"","type":"tuple"}],"stateMutability":"view","type":"function"},{"inputs":[],"name":"getCounts","outputs":[{"internalType":"uint256","name":"userCount","type":"uint256"},{"internalType":"uint256","name":"complaintCount","type":"uint256"},{"internalType":"uint256","name":"auditLogCount","type":"uint256"}],"stateMutability":"view","type":"function"},{"inputs":[{"internalType":"string","name":"_userId","type":"string"}],"name":"getUser","outputs":[{"components":[{"internalType":"bytes32","name":"emailHash","type":"bytes32"},{"internalType":"bytes32","name":"aadhaarHash","type":"bytes32"},{"internalType":"bytes32","name":"locationHash","type":"bytes32"},{"internalType":"uint64","name":"registrationDate","type":"uint64"},{"internalType":"bool","name":"isActive","type":"bool"}],"internalType":"struct GrievanceContractOptimized.User","name":"","type":"tuple"}],"stateMutability":"view","type":"function"},{"inputs":[{"internalType":"string","name":"_complaintId","type":"string"},{"internalType":"string","name":"_complainantId","type":"string"},{"internalType":"string","name":"_categoryId","type":"string"},{"internalType":"string","name":"_subCategory","type":"string"},{"internalType":"string","name":"_department","type":"string"},{"internalType":"uint8","name":"_urgency","type":"uint8"},{"internalType":"bytes32","name":"_descriptionHash","type":"bytes32"},{"internalType":"bytes32","name":"_attachmentHash","type":"bytes32"},{"internalType":"bytes32","name":"_locationHash","type":"bytes32"},{"internalType":"bool","name":"_isPublic","type":"bool"},{"internalType":"string","name":"_pin","type":"string"},{"internalType":"string","name":"_district","type":"string"},{"internalType":"string","name":"_city","type":"string"},{"internalType":"string","name":"_locality","type":"string"},{"internalType":"string","name":"_state","type":"string"}],"name":"registerComplaint","outputs":[],"stateMutability":"nonpayable","type":"function"},{"inputs":[{"internalType":"string","name":"_userId","type":"string"},{"internalType":"string","name":"_name","type":"string"},{"internalType":"string","name":"_role","type":"string"},{"internalType":"bytes32","name":"_emailHash","type":"bytes32"},{"internalType":"bytes32","name":"_aadhaarHash","type":"bytes32"},{"internalType":"bytes32","name":"_locationHash","type":"bytes32"},{"internalType":"string","name":"_pin","type":"string"},{"internalType":"string","name":"_district","type":"string"},{"internalType":"string","name":"_city","type":"string"},{"internalType":"string","name":"_state","type":"string"},{"internalType":"string","name":"_municipal","type":"string"}],"name":"registerUser","outputs":[],"stateMutability":"nonpayable","type":"function"},{"inputs":[{"internalType":"string","name":"_complaintId","type":"string"}],"name":"resolveComplaint","outputs":[],"stateMutability":"nonpayable","type":"function"},{"inputs":[],"name":"totalAuditLogs","outputs":[{"internalType":"uint256","name":"","type":"uint256"}],"stateMutability":"view","type":"function"},{"inputs":[],"name":"totalComplaints","outputs":[{"internalType":"uint256","name":"","type":"uint256"}],"stateMutability":"view","type":"function"},{"inputs":[],"name":"totalUsers","outputs":[{"internalType":"uint256","name":"","type":"uint256"}],"stateMutability":"view","type":"function"},{"inputs":[{"internalType":"string","name":"_complaintId","type":"string"},{"internalType":"uint8","name":"_newStatus","type":"uint8"},{"internalType":"string","name":"_statusName","type":"string"}],"name":"updateComplaintStatus","outputs":[],"stateMutability":"nonpayable","type":"function"},{"inputs":[{"internalType":"string","name":"_complaintId","type":"string"},{"internalType":"uint32","name":"_newCount","type":"uint32"}],"name":"updateUpvoteCount","outputs":[],"stateMutability":"nonpayable","type":"function"},{"inputs":[{"internalType":"bytes32","name":"","type":"bytes32"}],"name":"userExists","outputs":[{"internalType":"bool","name":"","type":"bool"}],"stateMutability":"view","type":"function"},{"inputs":[{"internalType":"bytes32","name":"","type":"bytes32"}],"name":"users","outputs":[{"internalType":"bytes32","name":"emailHash","type":"bytes32"},{"internalType":"bytes32","name":"aadhaarHash","type":"bytes32"},{"internalType":"bytes32","name":"locationHash","type":"bytes32"},{"internalType":"uint64","name":"registrationDate","type":"uint64"},{"internalType":"bool","name":"isActive","type":"bool"}],"stateMutability":"view","type":"function"},{"inputs":[{"internalType":"string","name":"_complaintId","type":"string"},{"internalType":"bytes32","name":"_descriptionHash","type":"bytes32"}],"name":"verifyHash","outputs":[{"internalType":"bool","name":"","type":"bool"}],"stateMutability":"view","type":"function"}],"evm":{"bytecode":{"linkReferences":{},"object":"608080604052346100165761166a908161001c8239f35b600080fdfe610160604052600436101561001357600080fd5b60003560e01c806305fd4b81146112875780630c95f24a146111ba5780630fe800471461104557806328cae1b114610fee5780632e01452114610eed57806331feb67114610dc157806342ef72ed14610ccd5780634c5b398414610c7657806364cb2e5a14610792578063939e9ebc1461065c578063a2e8452c1461062b578063a5373899146105fc578063a886b398146105de578063adad7b54146105ad578063b89207e014610533578063bff1f9e114610515578063cea6ab98146104b0578063d930928514610492578063dae771e8146101a05763e307bf2a146100f957600080fd5b3461019b57602036600319011261019b576004356000526001602052610140604060002060ff815491600181015490600281015460046003830154920154926040519586526020860152604085015260608401526001600160401b0380821660808501528160401c1660a084015263ffffffff8160801c1660c0840152818160a01c1660e0840152818160a81c1661010084015260b01c161515610120820152f35b600080fd5b3461019b5761016036600319011261019b576004356001600160401b03811161019b576101d190369060040161143d565b906024356001600160401b03811161019b576101f190369060040161143d565b91906044356001600160401b03811161019b5761021290369060040161143d565b9160c4356001600160401b03811161019b5761023290369060040161143d565b93909160e4356001600160401b03811161019b5761025490369060040161143d565b989096610104356001600160401b03811161019b5761027790369060040161143d565b906001600160401b03610124351161019b57610299366101243560040161143d565b949093610144356001600160401b03811161019b576102bc90369060040161143d565b9890976102ca3685856114bf565b602081519101209081600052600260205260ff60406000205416610457577f64aedf2e985899c13886846511c41843089706130f69f402ee6e4cf5ba0d202c9f6104529d7fab9f1589df9897d3342059878aeb7ca67b09863706a453ddd200042778a5971f936103386114a0565b906104186064359384845260208401608435938482526001600160401b036003604088019760a435988981526060820195844216875260808301956001875260005260006020526040600020925183555160018301555160028201550192511668ff000000000000000083549251151560401b169168ffffffffffffffffff19161717905560026020526040600020600160ff198254161790556103dd600454611511565b6004556040518b8b8237808c8101600081520390209861040a60405198899860c08a5260c08a0191611536565b918783036020890152611536565b926040850152606084015260808301524260a08301520390a28160405192839283378101600081520390209b6040519a8b9a42998c611557565b0390a2005b60405162461bcd60e51b81526020600482015260136024820152725573657220616c72656164792065786973747360681b6044820152606490fd5b3461019b57600036600319011261019b576020600654604051908152f35b3461019b57602036600319011261019b57600435600052600060205260a0604060002060ff8154916001810154906003600282015491015491604051948552602085015260408401526001600160401b038116606084015260401c1615156080820152f35b3461019b57600036600319011261019b576020600454604051908152f35b3461019b57604036600319011261019b576004356001600160401b03811161019b5761056661056d91369060040161143d565b36916114bf565b6020815191012080600052600360205261058e60ff604060002054166115e8565b6000526001602052602060243560016040600020015414604051908152f35b3461019b57602036600319011261019b576004356000526003602052602060ff604060002054166040519015158152f35b3461019b57600036600319011261019b576020600554604051908152f35b3461019b57600036600319011261019b5760606004546005546006549060405192835260208301526040820152f35b3461019b57602036600319011261019b576004356000526002602052602060ff604060002054166040519015158152f35b3461019b5760a036600319011261019b576001600160401b0360043581811161019b5761068d90369060040161143d565b909160243581811161019b576106a790369060040161143d565b909160443581811161019b576106c190369060040161143d565b95909460643583811161019b576106dc90369060040161143d565b969060843594851161019b577f8d956e3bccffc92a8d5bca8b3ffb4d6b34e574acfdbaed79a5865332cfb1612a9761076b6107799361072261078798369060040161143d565b969097610730600654611511565b6006558160405192839283378101600081520390209b61075d6040519b8c9b60a08d5260a08d0191611536565b918a830360208c0152611536565b918783036040890152611536565b918483036060860152611536565b4260808301520390a2005b3461019b576101e036600319011261019b576004356001600160401b03811161019b576107c390369060040161143d565b6024356001600160401b03811161019b576107e290369060040161143d565b90926044356001600160401b03811161019b5761080390369060040161143d565b92906064356001600160401b03811161019b5761082490369060040161143d565b9190956084356001600160401b03811161019b5761084690369060040161143d565b610120526101405260a4359460ff8616860361019b576101243593841515850361019b57610144356001600160401b03811161019b5761088a90369060040161143d565b610100526080526001600160401b03610164351161019b576108b2366101643560040161143d565b9a9060e052610184356001600160401b03811161019b576108d790369060040161143d565b9690956101a4356001600160401b03811161019b576108fa90369060040161143d565b9b909a6001600160401b036101c4351161019b5761091e366101c43560040161143d565b60a05260c05261092f3689896114bf565b602081519101209384600052600360205260ff60406000205416610c3157600160ff8316101580610c23575b15610bec5760ff7f2cb2af675e8819c3f82aabf7d1dceee876404f367f8be4f8702a1dfd819c6f069f610b73610b88916104529f7fe2c91b108b76f5ab9884491a5f0a7fe8524dee869ee22c66dcf0688638066c6f996109bd8c8336916114bf565b60208151910120906109cd61146a565b91825260c435602083015260e43560408301526101043560608301526001600160401b03421660808301526001600160401b03421660a0830152600060c083015286891660e083015260016101008301528715156101208301526000526001602052610120600460406000208351815560208401516001820155604084015160028201556060840151600382015501916001600160401b036080820151166001600160401b0319845416178355610a916001600160401b0360a083015116846115c0565b60c0810151835463ffffffff60801b191660809190911b63ffffffff60801b1617835560e0810151835461010083015160ff60a81b908b1660a81b16918a1660a090811b908b901b199091161760ff60a81b1916178355015115158154908760b01b9060b01b16908760b01b19161790556003602052604060002060018619825416179055610b21600554611511565b6005558d8d8160405192839283378101600081520390209a8160405192839283378101600081520390209a610b65604051998a996101208b526101208b0191611536565b9188830360208a0152611536565b85810360408701526101205161014051611536565b9216606084015260c435608084015260e43560a08401526101043560c0840152151560e0830152426101008301520390a381604051928392833781016000815203902096604051958695429460a0519460c0519460e051610100516080518c611557565b60405162461bcd60e51b815260206004820152600f60248201526e496e76616c696420757267656e637960881b6044820152606490fd5b50600460ff8316111561095b565b60405162461bcd60e51b815260206004820152601860248201527f436f6d706c61696e7420616c72656164792065786973747300000000000000006044820152606490fd5b3461019b57602036600319011261019b576004356001600160401b03811161019b57610566610ca991369060040161143d565b602081519101206000526002602052602060ff604060002054166040519015158152f35b3461019b57604036600319011261019b576001600160401b0360043581811161019b57610cfe90369060040161143d565b6024929192359063ffffffff82169384830361019b57610da16040937f96997602d52ecf8ca23dd335065ebb8db65ebfe972ebebb76056d966291ce9d695610d473686866114bf565b60208151910120806000526003602052610d6760ff8860002054166115e8565b60009081526001602052869020600401805463ffffffff60801b191660809390931b63ffffffff60801b169290921782555b4216906115c0565b8183519283928337810160008152039020928151908152426020820152a2005b3461019b5760208060031936011261019b576001600160401b0360043581811161019b57610df6610e1f91369060040161143d565b60006080610e026114a0565b8281528288820152826040820152826060820152015236916114bf565b828151910120806000526002835260ff6040600020541615610eb2579160a09260005260008152604060002091610e546114a0565b83549384825260018101549380830194855260036002830154926040850193845201549460ff608060608601958789168752019660401c16151586526040519687525190860152516040850152511660608301525115156080820152f35b60405162461bcd60e51b8152600481018490526013602482015272155cd95c88191bd95cc81b9bdd08195e1a5cdd606a1b6044820152606490fd5b3461019b57604036600319011261019b576001600160401b0360043581811161019b57610f1e90369060040161143d565b90916024359181831161019b57610fb993610f5e7f5b48c59b35a90d4400b6df55a5237d03dd96f4371ad4d6c1d8f4979cc6a4437694369060040161143d565b959093610f6c3685856114bf565b60208151910120806000526003602052610f8d60ff604060002054166115e8565b6000908152600160205260409020600401805460ff60a81b1916600160a91b17815542909116906115c0565b81604051928392833781016000815203902092610fe3604051928392604084526040840191611536565b4260208301520390a2005b3461019b57602036600319011261019b576004356001600160401b03811161019b5761056661102191369060040161143d565b602081519101206000526003602052602060ff604060002054166040519015158152f35b3461019b57606036600319011261019b576001600160401b0360043581811161019b5761107690369060040161143d565b9160243560ff81169182820361019b5760443581811161019b5761109e90369060040161143d565b956110aa3682886114bf565b60208151910120958660005260036020526110cc60ff604060002054166115e8565b6001861015806111af575b1561117957600096875260016020526040909620600401805460ff60a81b19811660a896871b60ff60a81b161782557fd9e0b760a009328f0e2e12fd321846159ea3349b1f86dc821269ee4aa5d6428297951c60ff169461116e94909161113d91610d99565b8160405192839283378101600081520390209560405194859485526020850152608060408501526080840191611536565b4260608301520390a2005b60405162461bcd60e51b815260206004820152600e60248201526d496e76616c69642073746174757360901b6044820152606490fd5b5060098611156110d7565b3461019b57602036600319011261019b576004356001600160401b0380821161019b576111ee61124992369060040161143d565b9290916111fc3685856114bf565b6020815191012080600052600360205261121d60ff604060002054166115e8565b6000908152600160205260409020600401805460ff60a81b1916600560a81b17815542909116906115c0565b8160405192839283378101600081520390207fac5b3ddd973715489d6f293b8141ae796bb175ae4f3d245c4f307030ae6f3bf16020604051428152a2005b3461019b57602036600319011261019b576004356001600160401b03811161019b576112ba61130491369060040161143d565b60006101206112c761146a565b8281528260208201528260408201528260608201528260808201528260a08201528260c08201528260e082015282610100820152015236916114bf565b6020815191012080600052600360205261132560ff604060002054166115e8565b6000526001602052610140604060002061012061134061146a565b60ff600484549485845260018101546020850152600281015460408501526003810154606085015201546001600160401b03811660808401526001600160401b038160401c1660a084015263ffffffff8160801c1660c0840152818160a01c1660e0840152818160a81c1661010084015260b01c161515828201526040519283526020810151602084015260408101516040840152606081015160608401526001600160401b0360808201511660808401526001600160401b0360a08201511660a084015263ffffffff60c08201511660c084015260ff60e08201511660e084015260ff6101008201511661010084015201511515610120820152f35b9181601f8401121561019b578235916001600160401b03831161019b576020838186019501011161019b57565b6040519061014082018281106001600160401b0382111761148a57604052565b634e487b7160e01b600052604160045260246000fd5b6040519060a082018281106001600160401b0382111761148a57604052565b9291926001600160401b039182811161148a5760405192601f8201601f19908116603f011684019081118482101761148a5760405282948184528183011161019b578281602093846000960137010152565b60001981146115205760010190565b634e487b7160e01b600052601160045260246000fd5b908060209392818452848401376000828201840152601f01601f1916010190565b9b9a99956115918d60a09b99966115bb9b966115836115ad9a9661159f9860c0865260c0860191611536565b926020818503910152611536565b8d810360408f015291611536565b918a830360608c0152611536565b918783036080890152611536565b930152565b9067ffffffffffffffff60401b82549160401b169067ffffffffffffffff60401b1916179055565b156115ef57565b60405162461bcd60e51b815260206004820152601860248201527f436f6d706c61696e7420646f6573206e6f7420657869737400000000000000006044820152606490fdfea26469706673582212204d19fcff7d4075ed4d1ecdd6898bc2b2f3b0f0607c184d1b9dff55c4ae7dc63d64736f6c63430008130033","opcodes":"PUSH1 0x80 DUP1 PUSH1 0x40 MSTORE CALLVALUE PUSH2 0x16 JUMPI PUSH2 0x166A SWAP1 DUP2 PUSH2 0x1C DUP3 CODECOPY RETURN JUMPDEST PUSH1 0x0 DUP1 REVERT INVALID PUSH2 0x160 PUSH1 0x40 MSTORE PUSH1 0x4 CALLDATASIZE LT ISZERO PUSH2 0x13 JUMPI PUSH1 0x0 DUP1 REVERT JUMPDEST PUSH1 0x0 CALLDATALOAD PUSH1 0xE0 SHR DUP1 PUSH4 0x5FD4B81 EQ PUSH2 0x1287 JUMPI DUP1 PUSH4 0xC95F24A EQ PUSH2 0x11BA JUMPI DUP1 PUSH4 0xFE80047 EQ PUSH2 0x1045 JUMPI DUP1 PUSH4 0x28CAE1B1 EQ PUSH2 0xFEE JUMPI DUP1 PUSH4 0x2E014521 EQ PUSH2 0xEED JUMPI DUP1 PUSH4 0x31FEB671 EQ PUSH2 0xDC1 JUMPI DUP1 PUSH4 0x42EF72ED EQ PUSH2 0xCCD JUMPI DUP1 PUSH4 0x4C5B3984 EQ PUSH2 0xC76 JUMPI DUP1 PUSH4 0x64CB2E5A EQ PUSH2 0x792 JUMPI DUP1 PUSH4 0x939E9EBC EQ PUSH2 0x65C JUMPI DUP1 PUSH4 0xA2E8452C EQ PUSH2 0x62B JUMPI DUP1 PUSH4 0xA5373899 EQ PUSH2 0x5FC JUMPI DUP1 PUSH4 0xA886B398 EQ PUSH2 0x5DE JUMPI DUP1 PUSH4 0xADAD7B54 EQ PUSH2 0x5AD JUMPI DUP1 PUSH4 0xB89207E0 EQ PUSH2 0x533 JUMPI DUP1 PUSH4 0xBFF1F9E1 EQ PUSH2 0x515 JUMPI DUP1 PUSH4 0xCEA6AB98 EQ PUSH2 0x4B0 JUMPI DUP1 PUSH4 0xD9309285 EQ PUSH2 0x492 JUMPI DUP1 PUSH4 0xDAE771E8 EQ PUSH2 0x1A0 JUMPI PUSH4 0xE307BF2A EQ PUSH2 0xF9 JUMPI PUSH1 0x0 DUP1 REVERT JUMPDEST CALLVALUE PUSH2 0x19B JUMPI PUSH1 0x20 CALLDATASIZE PUSH1 0x3 NOT ADD SLT PUSH2 0x19B JUMPI PUSH1 0x4 CALLDATALOAD PUSH1 0x0 MSTORE PUSH1 0x1 PUSH1 0x20 MSTORE PUSH2 0x140 PUSH1 0x40 PUSH1 0x0 KECCAK256 PUSH1 0xFF DUP2 SLOAD SWAP2 PUSH1 0x1 DUP2 ADD SLOAD SWAP1 PUSH1 0x2 DUP2 ADD SLOAD PUSH1 0x4 PUSH1 0x3 DUP4 ADD SLOAD SWAP3 ADD SLOAD SWAP3 PUSH1 0x40 MLOAD SWAP6 DUP7 MSTORE PUSH1 0x20 DUP7 ADD MSTORE PUSH1 0x40 DUP6 ADD MSTORE PUSH1 0x60 DUP5 ADD MSTORE PUSH1 0x1 PUSH1 0x1 PUSH1 0x40 SHL SUB DUP1 DUP3 AND PUSH1 0x80 DUP6 ADD MSTORE DUP2 PUSH1 0x40 SHR AND PUSH1 0xA0 DUP5 ADD MSTORE PUSH4 0xFFFFFFFF DUP2 PUSH1 0x80 SHR AND PUSH1 0xC0 DUP5 ADD MSTORE DUP2 DUP2 PUSH1 0xA0 SHR AND PUSH1 0xE0 DUP5 ADD MSTORE DUP2 DUP2 PUSH1 0xA8 SHR AND PUSH2 0x100 DUP5 ADD MSTORE PUSH1 0xB0 SHR AND ISZERO ISZERO PUSH2 0x120 DUP3 ADD MSTORE RETURN JUMPDEST PUSH1 0x0 DUP1 REVERT JUMPDEST CALLVALUE PUSH2 0x19B JUMPI PUSH2 0x160 CALLDATASIZE PUSH1 0x3 NOT ADD SLT PUSH2 0x19B JUMPI PUSH1 0x4 CALLDATALOAD PUSH1 0x1 PUSH1 0x1 PUSH1 0x40 SHL SUB DUP2 GT PUSH2 0x19B JUMPI PUSH2 0x1D1 SWAP1 CALLDATASIZE SWAP1 PUSH1 0x4 ADD PUSH2 0x143D JUMP JUMPDEST SWAP1 PUSH1 0x24 CALLDATALOAD PUSH1 0x1 PUSH1 0x1 PUSH1 0x40 SHL SUB DUP2 GT PUSH2 0x19B JUMPI PUSH2 0x1F1 SWAP1 CALLDATASIZE SWAP1 PUSH1 0x4 ADD PUSH2 0x143D JUMP JUMPDEST SWAP2 SWAP1 PUSH1 0x44 CALLDATALOAD PUSH1 0x1 PUSH1 0x1 PUSH1 0x40 SHL SUB DUP2 GT PUSH2 0x19B JUMPI PUSH2 0x212 SWAP1 CALLDATASIZE SWAP1 PUSH1 0x4 ADD PUSH2 0x143D JUMP JUMPDEST SWAP2 PUSH1 0xC4 CALLDATALOAD PUSH1 0x1 PUSH1 0x1 PUSH1 0x40 SHL SUB DUP2 GT PUSH2 0x19B JUMPI PUSH2 0x232 SWAP1 CALLDATASIZE SWAP1 PUSH1 0x4 ADD PUSH2 0x143D JUMP JUMPDEST SWAP4 SWAP1 SWAP2 PUSH1 0xE4 CALLDATALOAD PUSH1 0x1 PUSH1 0x1 PUSH1 0x40 SHL SUB DUP2 GT PUSH2 0x19B JUMPI PUSH2 0x254 SWAP1 CALLDATASIZE SWAP1 PUSH1 0x4 ADD PUSH2 0x143D JUMP JUMPDEST SWAP9 SWAP1 SWAP7 PUSH2 0x104 CALLDATALOAD PUSH1 0x1 PUSH1 0x1 PUSH1 0x40 SHL SUB DUP2 GT PUSH2 0x19B JUMPI PUSH2 0x277 SWAP1 CALLDATASIZE SWAP1 PUSH1 0x4 ADD PUSH2 0x143D JUMP JUMPDEST SWAP1 PUSH1 0x1 PUSH1 0x1 PUSH1 0x40 SHL SUB PUSH2 0x124 CALLDATALOAD GT PUSH2 0x19B JUMPI PUSH2 0x299 CALLDATASIZE PUSH2 0x124 CALLDATALOAD PUSH1 0x4 ADD PUSH2 0x143D JUMP JUMPDEST SWAP5 SWAP1 SWAP4 PUSH2 0x144 CALLDATALOAD PUSH1 0x1 PUSH1 0x1 PUSH1 0x40 SHL SUB DUP2 GT PUSH2 0x19B JUMPI PUSH2 0x2BC SWAP1 CALLDATASIZE SWAP1 PUSH1 0x4 ADD PUSH2 0x143D JUMP JUMPDEST SWAP9 SWAP1 SWAP8 PUSH2 0x2CA CALLDATASIZE DUP6 DUP6 PUSH2 0x14BF JUMP JUMPDEST PUSH1 0x20 DUP2 MLOAD SWAP2 ADD KECCAK256 SWAP1 DUP2 PUSH1 0x0 MSTORE PUSH1 0x2 PUSH1 0x20 MSTORE PUSH1 0xFF PUSH1 0x40 PUSH1 0x0 KECCAK256 SLOAD AND PUSH2 0x457 JUMPI PUSH32 0x64AEDF2E985899C13886846511C41843089706130F69F402EE6E4CF5BA0D202C SWAP16 PUSH2 0x452 SWAP14 PUSH32 0xAB9F1589DF9897D3342059878AEB7CA67B09863706A453DDD200042778A5971F SWAP4 PUSH2 0x338 PUSH2 0x14A0 JUMP JUMPDEST SWAP1 PUSH2 0x418 PUSH1 0x64 CALLDATALOAD SWAP4 DUP5 DUP5 MSTORE PUSH1 0x20 DUP5 ADD PUSH1 0x84 CALLDATALOAD SWAP4 DUP5 DUP3 MSTORE PUSH1 0x1 PUSH1 0x1 PUSH1 0x40 SHL SUB PUSH1 0x3 PUSH1 0x40 DUP9 ADD SWAP8 PUSH1 0xA4 CALLDATALOAD SWAP9 DUP10 DUP2 MSTORE PUSH1 0x60 DUP3 ADD SWAP6 DUP5 TIMESTAMP AND DUP8 MSTORE PUSH1 0x80 DUP4 ADD SWAP6 PUSH1 0x1 DUP8 MSTORE PUSH1 0x0 MSTORE PUSH1 0x0 PUSH1 0x20 MSTORE PUSH1 0x40 PUSH1 0x0 KECCAK256 SWAP3 MLOAD DUP4 SSTORE MLOAD PUSH1 0x1 DUP4 ADD SSTORE MLOAD PUSH1 0x2 DUP3 ADD SSTORE ADD SWAP3 MLOAD AND PUSH9 0xFF0000000000000000 DUP4 SLOAD SWAP3 MLOAD ISZERO ISZERO PUSH1 0x40 SHL AND SWAP2 PUSH9 0xFFFFFFFFFFFFFFFFFF NOT AND OR OR SWAP1 SSTORE PUSH1 0x2 PUSH1 0x20 MSTORE PUSH1 0x40 PUSH1 0x0 KECCAK256 PUSH1 0x1 PUSH1 0xFF NOT DUP3 SLOAD AND OR SWAP1 SSTORE PUSH2 0x3DD PUSH1 0x4 SLOAD PUSH2 0x1511 JUMP JUMPDEST PUSH1 0x4 SSTORE PUSH1 0x40 MLOAD DUP12 DUP12 DUP3 CALLDATACOPY DUP1 DUP13 DUP2 ADD PUSH1 0x0 DUP2 MSTORE SUB SWAP1 KECCAK256 SWAP9 PUSH2 0x40A PUSH1 0x40 MLOAD SWAP9 DUP10 SWAP9 PUSH1 0xC0 DUP11 MSTORE PUSH1 0xC0 DUP11 ADD SWAP2 PUSH2 0x1536 JUMP JUMPDEST SWAP2 DUP8 DUP4 SUB PUSH1 0x20 DUP10 ADD MSTORE PUSH2 0x1536 JUMP JUMPDEST SWAP3 PUSH1 0x40 DUP6 ADD MSTORE PUSH1 0x60 DUP5 ADD MSTORE PUSH1 0x80 DUP4 ADD MSTORE TIMESTAMP PUSH1 0xA0 DUP4 ADD MSTORE SUB SWAP1 LOG2 DUP2 PUSH1 0x40 MLOAD SWAP3 DUP4 SWAP3 DUP4 CALLDATACOPY DUP2 ADD PUSH1 0x0 DUP2 MSTORE SUB SWAP1 KECCAK256 SWAP12 PUSH1 0x40 MLOAD SWAP11 DUP12 SWAP11 TIMESTAMP SWAP10 DUP13 PUSH2 0x1557 JUMP JUMPDEST SUB SWAP1 LOG2 STOP JUMPDEST PUSH1 0x40 MLOAD PUSH3 0x461BCD PUSH1 0xE5 SHL DUP2 MSTORE PUSH1 0x20 PUSH1 0x4 DUP3 ADD MSTORE PUSH1 0x13 PUSH1 0x24 DUP3 ADD MSTORE PUSH19 0x5573657220616C726561647920657869737473 PUSH1 0x68 SHL PUSH1 0x44 DUP3 ADD MSTORE PUSH1 0x64 SWAP1 REVERT JUMPDEST CALLVALUE PUSH2 0x19B JUMPI PUSH1 0x0 CALLDATASIZE PUSH1 0x3 NOT ADD SLT PUSH2 0x19B JUMPI PUSH1 0x20 PUSH1 0x6 SLOAD PUSH1 0x40 MLOAD SWAP1 DUP2 MSTORE RETURN JUMPDEST CALLVALUE PUSH2 0x19B JUMPI PUSH1 0x20 CALLDATASIZE PUSH1 0x3 NOT ADD SLT PUSH2 0x19B JUMPI PUSH1 0x4 CALLDATALOAD PUSH1 0x0 MSTORE PUSH1 0x0 PUSH1 0x20 MSTORE PUSH1 0xA0 PUSH1 0x40 PUSH1 0x0 KECCAK256 PUSH1 0xFF DUP2 SLOAD SWAP2 PUSH1 0x1 DUP2 ADD SLOAD SWAP1 PUSH1 0x3 PUSH1 0x2 DUP3 ADD SLOAD SWAP2 ADD SLOAD SWAP2 PUSH1 0x40 MLOAD SWAP5 DUP6 MSTORE PUSH1 0x20 DUP6 ADD MSTORE PUSH1 0x40 DUP5 ADD MSTORE PUSH1 0x1 PUSH1 0x1 PUSH1 0x40 SHL SUB DUP2 AND PUSH1 0x60 DUP5 ADD MSTORE PUSH1 0x40 SHR AND ISZERO ISZERO PUSH1 0x80 DUP3 ADD MSTORE RETURN JUMPDEST CALLVALUE PUSH2 0x19B JUMPI PUSH1 0x0 CALLDATASIZE PUSH1 0x3 NOT ADD SLT PUSH2 0x19B JUMPI PUSH1 0x20 PUSH1 0x4 SLOAD PUSH1 0x40 MLOAD SWAP1 DUP2 MSTORE RETURN JUMPDEST CALLVALUE PUSH2 0x19B JUMPI PUSH1 0x40 CALLDATASIZE PUSH1 0x3 NOT ADD SLT PUSH2 0x19B JUMPI PUSH1 0x4 CALLDATALOAD PUSH1 0x1 PUSH1 0x1 PUSH1 0x40 SHL SUB DUP2 GT PUSH2 0x19B JUMPI PUSH2 0x566 PUSH2 0x56D SWAP2 CALLDATASIZE SWAP1 PUSH1 0x4 ADD PUSH2 0x143D JUMP JUMPDEST CALLDATASIZE SWAP2 PUSH2 0x14BF JUMP JUMPDEST PUSH1 0x20 DUP2 MLOAD SWAP2 ADD KECCAK256 DUP1 PUSH1 0x0 MSTORE PUSH1 0x3 PUSH1 0x20 MSTORE PUSH2 0x58E PUSH1 0xFF PUSH1 0x40 PUSH1 0x0 KECCAK256 SLOAD AND PUSH2 0x15E8 JUMP JUMPDEST PUSH1 0x0 MSTORE PUSH1 0x1 PUSH1 0x20 MSTORE PUSH1 0x20 PUSH1 0x24 CALLDATALOAD PUSH1 0x1 PUSH1 0x40 PUSH1 0x0 KECCAK256 ADD SLOAD EQ PUSH1 0x40 MLOAD SWAP1 DUP2 MSTORE RETURN JUMPDEST CALLVALUE PUSH2 0x19B JUMPI PUSH1 0x20 CALLDATASIZE PUSH1 0x3 NOT ADD SLT PUSH2 0x19B JUMPI PUSH1 0x4 CALLDATALOAD PUSH1 0x0 MSTORE PUSH1 0x3 PUSH1 0x20 MSTORE PUSH1 0x20 PUSH1 0xFF PUSH1 0x40 PUSH1 0x0 KECCAK256 SLOAD AND PUSH1 0x40 MLOAD SWAP1 ISZERO ISZERO DUP2 MSTORE RETURN JUMPDEST CALLVALUE PUSH2 0x19B JUMPI PUSH1 0x0 CALLDATASIZE PUSH1 0x3 NOT ADD SLT PUSH2 0x19B JUMPI PUSH1 0x20 PUSH1 0x5 SLOAD PUSH1 0x40 MLOAD SWAP1 DUP2 MSTORE RETURN JUMPDEST CALLVALUE PUSH2 0x19B JUMPI PUSH1 0x0 CALLDATASIZE PUSH1 0x3 NOT ADD SLT PUSH2 0x19B JUMPI PUSH1 0x60 PUSH1 0x4 SLOAD PUSH1 0x5 SLOAD PUSH1 0x6 SLOAD SWAP1 PUSH1 0x40 MLOAD SWAP3 DUP4 MSTORE PUSH1 0x20 DUP4 ADD MSTORE PUSH1 0x40 DUP3 ADD MSTORE RETURN JUMPDEST CALLVALUE PUSH2 0x19B JUMPI PUSH1 0x20 CALLDATASIZE PUSH1 0x3 NOT ADD SLT PUSH2 0x19B JUMPI PUSH1 0x4 CALLDATALOAD PUSH1 0x0 MSTORE PUSH1 0x2 PUSH1 0x20 MSTORE PUSH1 0x20 PUSH1 0xFF PUSH1 0x40 PUSH1 0x0 KECCAK256 SLOAD AND PUSH1 0x40 MLOAD SWAP1 ISZERO ISZERO DUP2 MSTORE RETURN JUMPDEST CALLVALUE PUSH2 0x19B JUMPI PUSH1 0xA0 CALLDATASIZE PUSH1 0x3 NOT ADD SLT PUSH2 0x19B JUMPI PUSH1 0x1 PUSH1 0x1 PUSH1 0x40 SHL SUB PUSH1 0x4 CALLDATALOAD DUP2 DUP2 GT PUSH2 0x19B JUMPI PUSH2 0x68D SWAP1 CALLDATASIZE SWAP1 PUSH1 0x4 ADD PUSH2 0x143D JUMP JUMPDEST SWAP1 SWAP2 PUSH1 0x24 CALLDATALOAD DUP2 DUP2 GT PUSH2 0x19B JUMPI PUSH2 0x6A7 SWAP1 CALLDATASIZE SWAP1 PUSH1 0x4 ADD PUSH2 0x143D JUMP JUMPDEST SWAP1 SWAP2 PUSH1 0x44 CALLDATALOAD DUP2 DUP2 GT PUSH2 0x19B JUMPI PUSH2 0x6C1 SWAP1 CALLDATASIZE SWAP1 PUSH1 0x4 ADD PUSH2 0x143D JUMP JUMPDEST SWAP6 SWAP1 SWAP5 PUSH1 0x64 CALLDATALOAD DUP4 DUP2 GT PUSH2 0x19B JUMPI PUSH2 0x6DC SWAP1 CALLDATASIZE SWAP1 PUSH1 0x4 ADD PUSH2 0x143D JUMP JUMPDEST SWAP7 SWAP1 PUSH1 0x84 CALLDATALOAD SWAP5 DUP6 GT PUSH2 0x19B JUMPI PUSH32 0x8D956E3BCCFFC92A8D5BCA8B3FFB4D6B34E574ACFDBAED79A5865332CFB1612A SWAP8 PUSH2 0x76B PUSH2 0x779 SWAP4 PUSH2 0x722 PUSH2 0x787 SWAP9 CALLDATASIZE SWAP1 PUSH1 0x4 ADD PUSH2 0x143D JUMP JUMPDEST SWAP7 SWAP1 SWAP8 PUSH2 0x730 PUSH1 0x6 SLOAD PUSH2 0x1511 JUMP JUMPDEST PUSH1 0x6 SSTORE DUP2 PUSH1 0x40 MLOAD SWAP3 DUP4 SWAP3 DUP4 CALLDATACOPY DUP2 ADD PUSH1 0x0 DUP2 MSTORE SUB SWAP1 KECCAK256 SWAP12 PUSH2 0x75D PUSH1 0x40 MLOAD SWAP12 DUP13 SWAP12 PUSH1 0xA0 DUP14 MSTORE PUSH1 0xA0 DUP14 ADD SWAP2 PUSH2 0x1536 JUMP JUMPDEST SWAP2 DUP11 DUP4 SUB PUSH1 0x20 DUP13 ADD MSTORE PUSH2 0x1536 JUMP JUMPDEST SWAP2 DUP8 DUP4 SUB PUSH1 0x40 DUP10 ADD MSTORE PUSH2 0x1536 JUMP JUMPDEST SWAP2 DUP5 DUP4 SUB PUSH1 0x60 DUP7 ADD MSTORE PUSH2 0x1536 JUMP JUMPDEST TIMESTAMP PUSH1 0x80 DUP4 ADD MSTORE SUB SWAP1 LOG2 STOP JUMPDEST CALLVALUE PUSH2 0x19B JUMPI PUSH2 0x1E0 CALLDATASIZE PUSH1 0x3 NOT ADD SLT PUSH2 0x19B JUMPI PUSH1 0x4 CALLDATALOAD PUSH1 0x1 PUSH1 0x1 PUSH1 0x40 SHL SUB DUP2 GT PUSH2 0x19B JUMPI PUSH2 0x7C3 SWAP1 CALLDATASIZE SWAP1 PUSH1 0x4 ADD PUSH2 0x143D JUMP JUMPDEST PUSH1 0x24 CALLDATALOAD PUSH1 0x1 PUSH1 0x1 PUSH1 0x40 SHL SUB DUP2 GT PUSH2 0x19B JUMPI PUSH2 0x7E2 SWAP1 CALLDATASIZE SWAP1 PUSH1 0x4 ADD PUSH2 0x143D JUMP JUMPDEST SWAP1 SWAP3 PUSH1 0x44 CALLDATALOAD PUSH1 0x1 PUSH1 0x1 PUSH1 0x40 SHL SUB DUP2 GT PUSH2 0x19B JUMPI PUSH2 0x803 SWAP1 CALLDATASIZE SWAP1 PUSH1 0x4 ADD PUSH2 0x143D JUMP JUMPDEST SWAP3 SWAP1 PUSH1 0x64 CALLDATALOAD PUSH1 0x1 PUSH1 0x1 PUSH1 0x40 SHL SUB DUP2 GT PUSH2 0x19B JUMPI PUSH2 0x824 SWAP1 CALLDATASIZE SWAP1 PUSH1 0x4 ADD PUSH2 0x143D JUMP JUMPDEST SWAP2 SWAP1 SWAP6 PUSH1 0x84 CALLDATALOAD PUSH1 0x1 PUSH1 0x1 PUSH1 0x40 SHL SUB DUP2 GT PUSH2 0x19B JUMPI PUSH2 0x846 SWAP1 CALLDATASIZE SWAP1 PUSH1 0x4 ADD PUSH2 0x143D JUMP JUMPDEST PUSH2 0x120 MSTORE PUSH2 0x140 MSTORE PUSH1 0xA4 CALLDATALOAD SWAP5 PUSH1 0xFF DUP7 AND DUP7 SUB PUSH2 0x19B JUMPI PUSH2 0x124 CALLDATALOAD SWAP4 DUP5 ISZERO ISZERO DUP6 SUB PUSH2 0x19B JUMPI PUSH2 0x144 CALLDATALOAD PUSH1 0x1 PUSH1 0x1 PUSH1 0x40 SHL SUB DUP2 GT PUSH2 0x19B JUMPI PUSH2 0x88A SWAP1 CALLDATASIZE SWAP1 PUSH1 0x4 ADD PUSH2 0x143D JUMP JUMPDEST PUSH2 0x100 MSTORE PUSH1 0x80 MSTORE PUSH1 0x1 PUSH1 0x1 PUSH1 0x40 SHL SUB PUSH2 0x164 CALLDATALOAD GT PUSH2 0x19B JUMPI PUSH2 0x8B2 CALLDATASIZE PUSH2 0x164 CALLDATALOAD PUSH1 0x4 ADD PUSH2 0x143D JUMP JUMPDEST SWAP11 SWAP1 PUSH1 0xE0 MSTORE PUSH2 0x184 CALLDATALOAD PUSH1 0x1 PUSH1 0x1 PUSH1 0x40 SHL SUB DUP2 GT PUSH2 0x19B JUMPI PUSH2 0x8D7 SWAP1 CALLDATASIZE SWAP1 PUSH1 0x4 ADD PUSH2 0x143D JUMP JUMPDEST SWAP7 SWAP1 SWAP6 PUSH2 0x1A4 CALLDATALOAD PUSH1 0x1 PUSH1 0x1 PUSH1 0x40 SHL SUB DUP2 GT PUSH2 0x19B JUMPI PUSH2 0x8FA SWAP1 CALLDATASIZE SWAP1 PUSH1 0x4 ADD PUSH2 0x143D JUMP JUMPDEST SWAP12 SWAP1 SWAP11 PUSH1 0x1 PUSH1 0x1 PUSH1 0x40 SHL SUB PUSH2 0x1C4 CALLDATALOAD GT PUSH2 0x19B JUMPI PUSH2 0x91E CALLDATASIZE PUSH2 0x1C4 CALLDATALOAD PUSH1 0x4 ADD PUSH2 0x143D JUMP JUMPDEST PUSH1 0xA0 MSTORE PUSH1 0xC0 MSTORE PUSH2 0x92F CALLDATASIZE DUP10 DUP10 PUSH2 0x14BF JUMP JUMPDEST PUSH1 0x20 DUP2 MLOAD SWAP2 ADD KECCAK256 SWAP4 DUP5 PUSH1 0x0 MSTORE PUSH1 0x3 PUSH1 0x20 MSTORE PUSH1 0xFF PUSH1 0x40 PUSH1 0x0 KECCAK256 SLOAD AND PUSH2 0xC31 JUMPI PUSH1 0x1 PUSH1 0xFF DUP4 AND LT ISZERO DUP1 PUSH2 0xC23 JUMPI JUMPDEST ISZERO PUSH2 0xBEC JUMPI PUSH1 0xFF PUSH32 0x2CB2AF675E8819C3F82AABF7D1DCEEE876404F367F8BE4F8702A1DFD819C6F06 SWAP16 PUSH2 0xB73 PUSH2 0xB88 SWAP2 PUSH2 0x452 SWAP16 PUSH32 0xE2C91B108B76F5AB9884491A5F0A7FE8524DEE869EE22C66DCF0688638066C6F SWAP10 PUSH2 0x9BD DUP13 DUP4 CALLDATASIZE SWAP2 PUSH2 0x14BF JUMP JUMPDEST PUSH1 0x20 DUP2 MLOAD SWAP2 ADD KECCAK256 SWAP1 PUSH2 0x9CD PUSH2 0x146A JUMP JUMPDEST SWAP2 DUP3 MSTORE PUSH1 0xC4 CALLDATALOAD PUSH1 0x20 DUP4 ADD MSTORE PUSH1 0xE4 CALLDATALOAD PUSH1 0x40 DUP4 ADD MSTORE PUSH2 0x104 CALLDATALOAD PUSH1 0x60 DUP4 ADD MSTORE PUSH1 0x1 PUSH1 0x1 PUSH1 0x40 SHL SUB TIMESTAMP AND PUSH1 0x80 DUP4 ADD MSTORE PUSH1 0x1 PUSH1 0x1 PUSH1 0x40 SHL SUB TIMESTAMP AND PUSH1 0xA0 DUP4 ADD MSTORE PUSH1 0x0 PUSH1 0xC0 DUP4 ADD MSTORE DUP7 DUP10 AND PUSH1 0xE0 DUP4 ADD MSTORE PUSH1 0x1 PUSH2 0x100 DUP4 ADD MSTORE DUP8 ISZERO ISZERO PUSH2 0x120 DUP4 ADD MSTORE PUSH1 0x0 MSTORE PUSH1 0x1 PUSH1 0x20 MSTORE PUSH2 0x120 PUSH1 0x4 PUSH1 0x40 PUSH1 0x0 KECCAK256 DUP4 MLOAD DUP2 SSTORE PUSH1 0x20 DUP5 ADD MLOAD PUSH1 0x1 DUP3 ADD SSTORE PUSH1 0x40 DUP5 ADD MLOAD PUSH1 0x2 DUP3 ADD SSTORE PUSH1 0x60 DUP5 ADD MLOAD PUSH1 0x3 DUP3 ADD SSTORE ADD SWAP2 PUSH1 0x1 PUSH1 0x1 PUSH1 0x40 SHL SUB PUSH1 0x80 DUP3 ADD MLOAD AND PUSH1 0x1 PUSH1 0x1 PUSH1 0x40 SHL SUB NOT DUP5 SLOAD AND OR DUP4 SSTORE PUSH2 0xA91 PUSH1 0x1 PUSH1 0x1 PUSH1 0x40 SHL SUB PUSH1 0xA0 DUP4 ADD MLOAD AND DUP5 PUSH2 0x15C0 JUMP JUMPDEST PUSH1 0xC0 DUP2 ADD MLOAD DUP4 SLOAD PUSH4 0xFFFFFFFF PUSH1 0x80 SHL NOT AND PUSH1 0x80 SWAP2 SWAP1 SWAP2 SHL PUSH4 0xFFFFFFFF PUSH1 0x80 SHL AND OR DUP4 SSTORE PUSH1 0xE0 DUP2 ADD MLOAD DUP4 SLOAD PUSH2 0x100 DUP4 ADD MLOAD PUSH1 0xFF PUSH1 0xA8 SHL SWAP1 DUP12 AND PUSH1 0xA8 SHL AND SWAP2 DUP11 AND PUSH1 0xA0 SWAP1 DUP2 SHL SWAP1 DUP12 SWAP1 SHL NOT SWAP1 SWAP2 AND OR PUSH1 0xFF PUSH1 0xA8 SHL NOT AND OR DUP4 SSTORE ADD MLOAD ISZERO ISZERO DUP2 SLOAD SWAP1 DUP8 PUSH1 0xB0 SHL SWAP1 PUSH1 0xB0 SHL AND SWAP1 DUP8 PUSH1 0xB0 SHL NOT AND OR SWAP1 SSTORE PUSH1 0x3 PUSH1 0x20 MSTORE PUSH1 0x40 PUSH1 0x0 KECCAK256 PUSH1 0x1 DUP7 NOT DUP3 SLOAD AND OR SWAP1 SSTORE PUSH2 0xB21 PUSH1 0x5 SLOAD PUSH2 0x1511 JUMP JUMPDEST PUSH1 0x5 SSTORE DUP14 DUP14 DUP2 PUSH1 0x40 MLOAD SWAP3 DUP4 SWAP3 DUP4 CALLDATACOPY DUP2 ADD PUSH1 0x0 DUP2 MSTORE SUB SWAP1 KECCAK256 SWAP11 DUP2 PUSH1 0x40 MLOAD SWAP3 DUP4 SWAP3 DUP4 CALLDATACOPY DUP2 ADD PUSH1 0x0 DUP2 MSTORE SUB SWAP1 KECCAK256 SWAP11 PUSH2 0xB65 PUSH1 0x40 MLOAD SWAP10 DUP11 SWAP10 PUSH2 0x120 DUP12 MSTORE PUSH2 0x120 DUP12 ADD SWAP2 PUSH2 0x1536 JUMP JUMPDEST SWAP2 DUP9 DUP4 SUB PUSH1 0x20 DUP11 ADD MSTORE PUSH2 0x1536 JUMP JUMPDEST DUP6 DUP2 SUB PUSH1 0x40 DUP8 ADD MSTORE PUSH2 0x120 MLOAD PUSH2 0x140 MLOAD PUSH2 0x1536 JUMP JUMPDEST SWAP3 AND PUSH1 0x60 DUP5 ADD MSTORE PUSH1 0xC4 CALLDATALOAD PUSH1 0x80 DUP5 ADD MSTORE PUSH1 0xE4 CALLDATALOAD PUSH1 0xA0 DUP5 ADD MSTORE PUSH2 0x104 CALLDATALOAD PUSH1 0xC0 DUP5 ADD MSTORE ISZERO ISZERO PUSH1 0xE0 DUP4 ADD MSTORE TIMESTAMP PUSH2 0x100 DUP4 ADD MSTORE SUB SWAP1 LOG3 DUP2 PUSH1 0x40 MLOAD SWAP3 DUP4 SWAP3 DUP4 CALLDATACOPY DUP2 ADD PUSH1 0x0 DUP2 MSTORE SUB SWAP1 KECCAK256 SWAP7 PUSH1 0x40 MLOAD SWAP6 DUP7 SWAP6 TIMESTAMP SWAP5 PUSH1 0xA0 MLOAD SWAP5 PUSH1 0xC0 MLOAD SWAP5 PUSH1 0xE0 MLOAD PUSH2 0x100 MLOAD PUSH1 0x80 MLOAD DUP13 PUSH2 0x1557 JUMP JUMPDEST PUSH1 0x40 MLOAD PUSH3 0x461BCD PUSH1 0xE5 SHL DUP2 MSTORE PUSH1 0x20 PUSH1 0x4 DUP3 ADD MSTORE PUSH1 0xF PUSH1 0x24 DUP3 ADD MSTORE PUSH15 0x496E76616C696420757267656E6379 PUSH1 0x88 SHL PUSH1 0x44 DUP3 ADD MSTORE PUSH1 0x64 SWAP1 REVERT JUMPDEST POP PUSH1 0x4 PUSH1 0xFF DUP4 AND GT ISZERO PUSH2 0x95B JUMP JUMPDEST PUSH1 0x40 MLOAD PUSH3 0x461BCD PUSH1 0xE5 SHL DUP2 MSTORE PUSH1 0x20 PUSH1 0x4 DUP3 ADD MSTORE PUSH1 0x18 PUSH1 0x24 DUP3 ADD MSTORE PUSH32 0x436F6D706C61696E7420616C7265616479206578697374730000000000000000 PUSH1 0x44 DUP3 ADD MSTORE PUSH1 0x64 SWAP1 REVERT JUMPDEST CALLVALUE PUSH2 0x19B JUMPI PUSH1 0x20 CALLDATASIZE PUSH1 0x3 NOT ADD SLT PUSH2 0x19B JUMPI PUSH1 0x4 CALLDATALOAD PUSH1 0x1 PUSH1 0x1 PUSH1 0x40 SHL SUB DUP2 GT PUSH2 0x19B JUMPI PUSH2 0x566 PUSH2 0xCA9 SWAP2 CALLDATASIZE SWAP1 PUSH1 0x4 ADD PUSH2 0x143D JUMP JUMPDEST PUSH1 0x20 DUP2 MLOAD SWAP2 ADD KECCAK256 PUSH1 0x0 MSTORE PUSH1 0x2 PUSH1 0x20 MSTORE PUSH1 0x20 PUSH1 0xFF PUSH1 0x40 PUSH1 0x0 KECCAK256 SLOAD AND PUSH1 0x40 MLOAD SWAP1 ISZERO ISZERO DUP2 MSTORE RETURN JUMPDEST CALLVALUE PUSH2 0x19B JUMPI PUSH1 0x40 CALLDATASIZE PUSH1 0x3 NOT ADD SLT PUSH2 0x19B JUMPI PUSH1 0x1 PUSH1 0x1 PUSH1 0x40 SHL SUB PUSH1 0x4 CALLDATALOAD DUP2 DUP2 GT PUSH2 0x19B JUMPI PUSH2 0xCFE SWAP1 CALLDATASIZE SWAP1 PUSH1 0x4 ADD PUSH2 0x143D JUMP JUMPDEST PUSH1 0x24 SWAP3 SWAP2 SWAP3 CALLDATALOAD SWAP1 PUSH4 0xFFFFFFFF DUP3 AND SWAP4 DUP5 DUP4 SUB PUSH2 0x19B JUMPI PUSH2 0xDA1 PUSH1 0x40 SWAP4 PUSH32 0x96997602D52ECF8CA23DD335065EBB8DB65EBFE972EBEBB76056D966291CE9D6 SWAP6 PUSH2 0xD47 CALLDATASIZE DUP7 DUP7 PUSH2 0x14BF JUMP JUMPDEST PUSH1 0x20 DUP2 MLOAD SWAP2 ADD KECCAK256 DUP1 PUSH1 0x0 MSTORE PUSH1 0x3 PUSH1 0x20 MSTORE PUSH2 0xD67 PUSH1 0xFF DUP9 PUSH1 0x0 KECCAK256 SLOAD AND PUSH2 0x15E8 JUMP JUMPDEST PUSH1 0x0 SWAP1 DUP2 MSTORE PUSH1 0x1 PUSH1 0x20 MSTORE DUP7 SWAP1 KECCAK256 PUSH1 0x4 ADD DUP1 SLOAD PUSH4 0xFFFFFFFF PUSH1 0x80 SHL NOT AND PUSH1 0x80 SWAP4 SWAP1 SWAP4 SHL PUSH4 0xFFFFFFFF PUSH1 0x80 SHL AND SWAP3 SWAP1 SWAP3 OR DUP3 SSTORE JUMPDEST TIMESTAMP AND SWAP1 PUSH2 0x15C0 JUMP JUMPDEST DUP2 DUP4 MLOAD SWAP3 DUP4 SWAP3 DUP4 CALLDATACOPY DUP2 ADD PUSH1 0x0 DUP2 MSTORE SUB SWAP1 KECCAK256 SWAP3 DUP2 MLOAD SWAP1 DUP2 MSTORE TIMESTAMP PUSH1 0x20 DUP3 ADD MSTORE LOG2 STOP JUMPDEST CALLVALUE PUSH2 0x19B JUMPI PUSH1 0x20 DUP1 PUSH1 0x3 NOT CALLDATASIZE ADD SLT PUSH2 0x19B JUMPI PUSH1 0x1 PUSH1 0x1 PUSH1 0x40 SHL SUB PUSH1 0x4 CALLDATALOAD DUP2 DUP2 GT PUSH2 0x19B JUMPI PUSH2 0xDF6 PUSH2 0xE1F SWAP2 CALLDATASIZE SWAP1 PUSH1 0x4 ADD PUSH2 0x143D JUMP JUMPDEST PUSH1 0x0 PUSH1 0x80 PUSH2 0xE02 PUSH2 0x14A0 JUMP JUMPDEST DUP3 DUP2 MSTORE DUP3 DUP9 DUP3 ADD MSTORE DUP3 PUSH1 0x40 DUP3 ADD MSTORE DUP3 PUSH1 0x60 DUP3 ADD MSTORE ADD MSTORE CALLDATASIZE SWAP2 PUSH2 0x14BF JUMP JUMPDEST DUP3 DUP2 MLOAD SWAP2 ADD KECCAK256 DUP1 PUSH1 0x0 MSTORE PUSH1 0x2 DUP4 MSTORE PUSH1 0xFF PUSH1 0x40 PUSH1 0x0 KECCAK256 SLOAD AND ISZERO PUSH2 0xEB2 JUMPI SWAP2 PUSH1 0xA0 SWAP3 PUSH1 0x0 MSTORE PUSH1 0x0 DUP2 MSTORE PUSH1 0x40 PUSH1 0x0 KECCAK256 SWAP2 PUSH2 0xE54 PUSH2 0x14A0 JUMP JUMPDEST DUP4 SLOAD SWAP4 DUP5 DUP3 MSTORE PUSH1 0x1 DUP2 ADD SLOAD SWAP4 DUP1 DUP4 ADD SWAP5 DUP6 MSTORE PUSH1 0x3 PUSH1 0x2 DUP4 ADD SLOAD SWAP3 PUSH1 0x40 DUP6 ADD SWAP4 DUP5 MSTORE ADD SLOAD SWAP5 PUSH1 0xFF PUSH1 0x80 PUSH1 0x60 DUP7 ADD SWAP6 DUP8 DUP10 AND DUP8 MSTORE ADD SWAP7 PUSH1 0x40 SHR AND ISZERO ISZERO DUP7 MSTORE PUSH1 0x40 MLOAD SWAP7 DUP8 MSTORE MLOAD SWAP1 DUP7 ADD MSTORE MLOAD PUSH1 0x40 DUP6 ADD MSTORE MLOAD AND PUSH1 0x60 DUP4 ADD MSTORE MLOAD ISZERO ISZERO PUSH1 0x80 DUP3 ADD MSTORE RETURN JUMPDEST PUSH1 0x40 MLOAD PUSH3 0x461BCD PUSH1 0xE5 SHL DUP2 MSTORE PUSH1 0x4 DUP2 ADD DUP5 SWAP1 MSTORE PUSH1 0x13 PUSH1 0x24 DUP3 ADD MSTORE PUSH19 0x155CD95C88191BD95CC81B9BDD08195E1A5CDD PUSH1 0x6A SHL PUSH1 0x44 DUP3 ADD MSTORE PUSH1 0x64 SWAP1 REVERT JUMPDEST CALLVALUE PUSH2 0x19B JUMPI PUSH1 0x40 CALLDATASIZE PUSH1 0x3 NOT ADD SLT PUSH2 0x19B JUMPI PUSH1 0x1 PUSH1 0x1 PUSH1 0x40 SHL SUB PUSH1 0x4 CALLDATALOAD DUP2 DUP2 GT PUSH2 0x19B JUMPI PUSH2 0xF1E SWAP1 CALLDATASIZE SWAP1 PUSH1 0x4 ADD PUSH2 0x143D JUMP JUMPDEST SWAP1 SWAP2 PUSH1 0x24 CALLDATALOAD SWAP2 DUP2 DUP4 GT PUSH2 0x19B JUMPI PUSH2 0xFB9 SWAP4 PUSH2 0xF5E PUSH32 0x5B48C59B35A90D4400B6DF55A5237D03DD96F4371AD4D6C1D8F4979CC6A44376 SWAP5 CALLDATASIZE SWAP1 PUSH1 0x4 ADD PUSH2 0x143D JUMP JUMPDEST SWAP6 SWAP1 SWAP4 PUSH2 0xF6C CALLDATASIZE DUP6 DUP6 PUSH2 0x14BF JUMP JUMPDEST PUSH1 0x20 DUP2 MLOAD SWAP2 ADD KECCAK256 DUP1 PUSH1 0x0 MSTORE PUSH1 0x3 PUSH1 0x20 MSTORE PUSH2 0xF8D PUSH1 0xFF PUSH1 0x40 PUSH1 0x0 KECCAK256 SLOAD AND PUSH2 0x15E8 JUMP JUMPDEST PUSH1 0x0 SWAP1 DUP2 MSTORE PUSH1 0x1 PUSH1 0x20 MSTORE PUSH1 0x40 SWAP1 KECCAK256 PUSH1 0x4 ADD DUP1 SLOAD PUSH1 0xFF PUSH1 0xA8 SHL NOT AND PUSH1 0x1 PUSH1 0xA9 SHL OR DUP2 SSTORE TIMESTAMP SWAP1 SWAP2 AND SWAP1 PUSH2 0x15C0 JUMP JUMPDEST DUP2 PUSH1 0x40 MLOAD SWAP3 DUP4 SWAP3 DUP4 CALLDATACOPY DUP2 ADD PUSH1 0x0 DUP2 MSTORE SUB SWAP1 KECCAK256 SWAP3 PUSH2 0xFE3 PUSH1 0x40 MLOAD SWAP3 DUP4 SWAP3 PUSH1 0x40 DUP5 MSTORE PUSH1 0x40 DUP5 ADD SWAP2 PUSH2 0x1536 JUMP JUMPDEST TIMESTAMP PUSH1 0x20 DUP4 ADD MSTORE SUB SWAP1 LOG2 STOP JUMPDEST CALLVALUE PUSH2 0x19B JUMPI PUSH1 0x20 CALLDATASIZE PUSH1 0x3 NOT ADD SLT PUSH2 0x19B JUMPI PUSH1 0x4 CALLDATALOAD PUSH1 0x1 PUSH1 0x1 PUSH1 0x40 SHL SUB DUP2 GT PUSH2 0x19B JUMPI PUSH2 0x566 PUSH2 0x1021 SWAP2 CALLDATASIZE SWAP1 PUSH1 0x4 ADD PUSH2 0x143D JUMP JUMPDEST PUSH1 0x20 DUP2 MLOAD SWAP2 ADD KECCAK256 PUSH1 0x0 MSTORE PUSH1 0x3 PUSH1 0x20 MSTORE PUSH1 0x20 PUSH1 0xFF PUSH1 0x40 PUSH1 0x0 KECCAK256 SLOAD AND PUSH1 0x40 MLOAD SWAP1 ISZERO ISZERO DUP2 MSTORE RETURN JUMPDEST CALLVALUE PUSH2 0x19B JUMPI PUSH1 0x60 CALLDATASIZE PUSH1 0x3 NOT ADD SLT PUSH2 0x19B JUMPI PUSH1 0x1 PUSH1 0x1 PUSH1 0x40 SHL SUB PUSH1 0x4 CALLDATALOAD DUP2 DUP2 GT PUSH2 0x19B JUMPI PUSH2 0x1076 SWAP1 CALLDATASIZE SWAP1 PUSH1 0x4 ADD PUSH2 0x143D JUMP JUMPDEST SWAP2 PUSH1 0x24 CALLDATALOAD PUSH1 0xFF DUP2 AND SWAP2 DUP3 DUP3 SUB PUSH2 0x19B JUMPI PUSH1 0x44 CALLDATALOAD DUP2 DUP2 GT PUSH2 0x19B JUMPI PUSH2 0x109E SWAP1 CALLDATASIZE SWAP1 PUSH1 0x4 ADD PUSH2 0x143D JUMP JUMPDEST SWAP6 PUSH2 0x10AA CALLDATASIZE DUP3 DUP9 PUSH2 0x14BF JUMP JUMPDEST PUSH1 0x20 DUP2 MLOAD SWAP2 ADD KECCAK256 SWAP6 DUP7 PUSH1 0x0 MSTORE PUSH1 0x3 PUSH1 0x20 MSTORE PUSH2 0x10CC PUSH1 0xFF PUSH1 0x40 PUSH1 0x0 KECCAK256 SLOAD AND PUSH2 0x15E8 JUMP JUMPDEST PUSH1 0x1 DUP7 LT ISZERO DUP1 PUSH2 0x11AF JUMPI JUMPDEST ISZERO PUSH2 0x1179 JUMPI PUSH1 0x0 SWAP7 DUP8 MSTORE PUSH1 0x1 PUSH1 0x20 MSTORE PUSH1 0x40 SWAP1 SWAP7 KECCAK256 PUSH1 0x4 ADD DUP1 SLOAD PUSH1 0xFF PUSH1 0xA8 SHL NOT DUP2 AND PUSH1 0xA8 SWAP7 DUP8 SHL PUSH1 0xFF PUSH1 0xA8 SHL AND OR DUP3 SSTORE PUSH32 0xD9E0B760A009328F0E2E12FD321846159EA3349B1F86DC821269EE4AA5D64282 SWAP8 SWAP6 SHR PUSH1 0xFF AND SWAP5 PUSH2 0x116E SWAP5 SWAP1 SWAP2 PUSH2 0x113D SWAP2 PUSH2 0xD99 JUMP JUMPDEST DUP2 PUSH1 0x40 MLOAD SWAP3 DUP4 SWAP3 DUP4 CALLDATACOPY DUP2 ADD PUSH1 0x0 DUP2 MSTORE SUB SWAP1 KECCAK256 SWAP6 PUSH1 0x40 MLOAD SWAP5 DUP6 SWAP5 DUP6 MSTORE PUSH1 0x20 DUP6 ADD MSTORE PUSH1 0x80 PUSH1 0x40 DUP6 ADD MSTORE PUSH1 0x80 DUP5 ADD SWAP2 PUSH2 0x1536 JUMP JUMPDEST TIMESTAMP PUSH1 0x60 DUP4 ADD MSTORE SUB SWAP1 LOG2 STOP JUMPDEST PUSH1 0x40 MLOAD PUSH3 0x461BCD PUSH1 0xE5 SHL DUP2 MSTORE PUSH1 0x20 PUSH1 0x4 DUP3 ADD MSTORE PUSH1 0xE PUSH1 0x24 DUP3 ADD MSTORE PUSH14 0x496E76616C696420737461747573 PUSH1 0x90 SHL PUSH1 0x44 DUP3 ADD MSTORE PUSH1 0x64 SWAP1 REVERT JUMPDEST POP PUSH1 0x9 DUP7 GT ISZERO PUSH2 0x10D7 JUMP JUMPDEST CALLVALUE PUSH2 0x19B JUMPI PUSH1 0x20 CALLDATASIZE PUSH1 0x3 NOT ADD SLT PUSH2 0x19B JUMPI PUSH1 0x4 CALLDATALOAD PUSH1 0x1 PUSH1 0x1 PUSH1 0x40 SHL SUB DUP1 DUP3 GT PUSH2 0x19B JUMPI PUSH2 0x11EE PUSH2 0x1249 SWAP3 CALLDATASIZE SWAP1 PUSH1 0x4 ADD PUSH2 0x143D JUMP JUMPDEST SWAP3 SWAP1 SWAP2 PUSH2 0x11FC CALLDATASIZE DUP6 DUP6 PUSH2 0x14BF JUMP JUMPDEST PUSH1 0x20 DUP2 MLOAD SWAP2 ADD KECCAK256 DUP1 PUSH1 0x0 MSTORE PUSH1 0x3 PUSH1 0x20 MSTORE PUSH2 0x121D PUSH1 0xFF PUSH1 0x40 PUSH1 0x0 KECCAK256 SLOAD AND PUSH2 0x15E8 JUMP JUMPDEST PUSH1 0x0 SWAP1 DUP2 MSTORE PUSH1 0x1 PUSH1 0x20 MSTORE PUSH1 0x40 SWAP1 KECCAK256 PUSH1 0x4 ADD DUP1 SLOAD PUSH1 0xFF PUSH1 0xA8 SHL NOT AND PUSH1 0x5 PUSH1 0xA8 SHL OR DUP2 SSTORE TIMESTAMP SWAP1 SWAP2 AND SWAP1 PUSH2 0x15C0 JUMP JUMPDEST DUP2 PUSH1 0x40 MLOAD SWAP3 DUP4 SWAP3 DUP4 CALLDATACOPY DUP2 ADD PUSH1 0x0 DUP2 MSTORE SUB SWAP1 KECCAK256 PUSH32 0xAC5B3DDD973715489D6F293B8141AE796BB175AE4F3D245C4F307030AE6F3BF1 PUSH1 0x20 PUSH1 0x40 MLOAD TIMESTAMP DUP2 MSTORE LOG2 STOP JUMPDEST CALLVALUE PUSH2 0x19B JUMPI PUSH1 0x20 CALLDATASIZE PUSH1 0x3 NOT ADD SLT PUSH2 0x19B JUMPI PUSH1 0x4 CALLDATALOAD PUSH1 0x1 PUSH1 0x1 PUSH1 0x40 SHL SUB DUP2 GT PUSH2 0x19B JUMPI PUSH2 0x12BA PUSH2 0x1304 SWAP2 CALLDATASIZE SWAP1 PUSH1 0x4 ADD PUSH2 0x143D JUMP JUMPDEST PUSH1 0x0 PUSH2 0x120 PUSH2 0x12C7 PUSH2 0x146A JUMP JUMPDEST DUP3 DUP2 MSTORE DUP3 PUSH1 0x20 DUP3 ADD MSTORE DUP3 PUSH1 0x40 DUP3 ADD MSTORE DUP3 PUSH1 0x60 DUP3 ADD MSTORE DUP3 PUSH1 0x80 DUP3 ADD MSTORE DUP3 PUSH1 0xA0 DUP3 ADD MSTORE DUP3 PUSH1 0xC0 DUP3 ADD MSTORE DUP3 PUSH1 0xE0 DUP3 ADD MSTORE DUP3 PUSH2 0x100 DUP3 ADD MSTORE ADD MSTORE CALLDATASIZE SWAP2 PUSH2 0x14BF JUMP JUMPDEST PUSH1 0x20 DUP2 MLOAD SWAP2 ADD KECCAK256 DUP1 PUSH1 0x0 MSTORE PUSH1 0x3 PUSH1 0x20 MSTORE PUSH2 0x1325 PUSH1 0xFF PUSH1 0x40 PUSH1 0x0 KECCAK256 SLOAD AND PUSH2 0x15E8 JUMP JUMPDEST PUSH1 0x0 MSTORE PUSH1 0x1 PUSH1 0x20 MSTORE PUSH2 0x140 PUSH1 0x40 PUSH1 0x0 KECCAK256 PUSH2 0x120 PUSH2 0x1340 PUSH2 0x146A JUMP JUMPDEST PUSH1 0xFF PUSH1 0x4 DUP5 SLOAD SWAP5 DUP6 DUP5 MSTORE PUSH1 0x1 DUP2 ADD SLOAD PUSH1 0x20 DUP6 ADD MSTORE PUSH1 0x2 DUP2 ADD SLOAD PUSH1 0x40 DUP6 ADD MSTORE PUSH1 0x3 DUP2 ADD SLOAD PUSH1 0x60 DUP6 ADD MSTORE ADD SLOAD PUSH1 0x1 PUSH1 0x1 PUSH1 0x40 SHL SUB DUP2 AND PUSH1 0x80 DUP5 ADD MSTORE PUSH1 0x1 PUSH1 0x1 PUSH1 0x40 SHL SUB DUP2 PUSH1 0x40 SHR AND PUSH1 0xA0 DUP5 ADD MSTORE PUSH4 0xFFFFFFFF DUP2 PUSH1 0x80 SHR AND PUSH1 0xC0 DUP5 ADD MSTORE DUP2 DUP2 PUSH1 0xA0 SHR AND PUSH1 0xE0 DUP5 ADD MSTORE DUP2 DUP2 PUSH1 0xA8 SHR AND PUSH2 0x100 DUP5 ADD MSTORE PUSH1 0xB0 SHR AND ISZERO ISZERO DUP3 DUP3 ADD MSTORE PUSH1 0x40 MLOAD SWAP3 DUP4 MSTORE PUSH1 0x20 DUP2 ADD MLOAD PUSH1 0x20 DUP5 ADD MSTORE PUSH1 0x40 DUP2 ADD MLOAD PUSH1 0x40 DUP5 ADD MSTORE PUSH1 0x60 DUP2 ADD MLOAD PUSH1 0x60 DUP5 ADD MSTORE PUSH1 0x1 PUSH1 0x1 PUSH1 0x40 SHL SUB PUSH1 0x80 DUP3 ADD MLOAD AND PUSH1 0x80 DUP5 ADD MSTORE PUSH1 0x1 PUSH1 0x1 PUSH1 0x40 SHL SUB PUSH1 0xA0 DUP3 ADD MLOAD AND PUSH1 0xA0 DUP5 ADD MSTORE PUSH4 0xFFFFFFFF PUSH1 0xC0 DUP3 ADD MLOAD AND PUSH1 0xC0 DUP5 ADD MSTORE PUSH1 0xFF PUSH1 0xE0 DUP3 ADD MLOAD AND PUSH1 0xE0 DUP5 ADD MSTORE PUSH1 0xFF PUSH2 0x100 DUP3 ADD MLOAD AND PUSH2 0x100 DUP5 ADD MSTORE ADD MLOAD ISZERO ISZERO PUSH2 0x120 DUP3 ADD MSTORE RETURN JUMPDEST SWAP2 DUP2 PUSH1 0x1F DUP5 ADD SLT ISZERO PUSH2 0x19B JUMPI DUP3 CALLDATALOAD SWAP2 PUSH1 0x1 PUSH1 0x1 PUSH1 0x40 SHL SUB DUP4 GT PUSH2 0x19B JUMPI PUSH1 0x20 DUP4 DUP2 DUP7 ADD SWAP6 ADD ADD GT PUSH2 0x19B JUMPI JUMP JUMPDEST PUSH1 0x40 MLOAD SWAP1 PUSH2 0x140 DUP3 ADD DUP3 DUP2 LT PUSH1 0x1 PUSH1 0x1 PUSH1 0x40 SHL SUB DUP3 GT OR PUSH2 0x148A JUMPI PUSH1 0x40 MSTORE JUMP JUMPDEST PUSH4 0x4E487B71 PUSH1 0xE0 SHL PUSH1 0x0 MSTORE PUSH1 0x41 PUSH1 0x4 MSTORE PUSH1 0x24 PUSH1 0x0 REVERT JUMPDEST PUSH1 0x40 MLOAD SWAP1 PUSH1 0xA0 DUP3 ADD DUP3 DUP2 LT PUSH1 0x1 PUSH1 0x1 PUSH1 0x40 SHL SUB DUP3 GT OR PUSH2 0x148A JUMPI PUSH1 0x40 MSTORE JUMP JUMPDEST SWAP3 SWAP2 SWAP3 PUSH1 0x1 PUSH1 0x1 PUSH1 0x40 SHL SUB SWAP2 DUP3 DUP2 GT PUSH2 0x148A JUMPI PUSH1 0x40 MLOAD SWAP3 PUSH1 0x1F DUP3 ADD PUSH1 0x1F NOT SWAP1 DUP2 AND PUSH1 0x3F ADD AND DUP5 ADD SWAP1 DUP2 GT DUP5 DUP3 LT OR PUSH2 0x148A JUMPI PUSH1 0x40 MSTORE DUP3 SWAP5 DUP2 DUP5 MSTORE DUP2 DUP4 ADD GT PUSH2 0x19B JUMPI DUP3 DUP2 PUSH1 0x20 SWAP4 DUP5 PUSH1 0x0 SWAP7 ADD CALLDATACOPY ADD ADD MSTORE JUMP JUMPDEST PUSH1 0x0 NOT DUP2 EQ PUSH2 0x1520 JUMPI PUSH1 0x1 ADD SWAP1 JUMP JUMPDEST PUSH4 0x4E487B71 PUSH1 0xE0 SHL PUSH1 0x0 MSTORE PUSH1 0x11 PUSH1 0x4 MSTORE PUSH1 0x24 PUSH1 0x0 REVERT JUMPDEST SWAP1 DUP1 PUSH1 0x20 SWAP4 SWAP3 DUP2 DUP5 MSTORE DUP5 DUP5 ADD CALLDATACOPY PUSH1 0x0 DUP3 DUP3 ADD DUP5 ADD MSTORE PUSH1 0x1F ADD PUSH1 0x1F NOT AND ADD ADD SWAP1 JUMP JUMPDEST SWAP12 SWAP11 SWAP10 SWAP6 PUSH2 0x1591 DUP14 PUSH1 0xA0 SWAP12 SWAP10 SWAP7 PUSH2 0x15BB SWAP12 SWAP7 PUSH2 0x1583 PUSH2 0x15AD SWAP11 SWAP7 PUSH2 0x159F SWAP9 PUSH1 0xC0 DUP7 MSTORE PUSH1 0xC0 DUP7 ADD SWAP2 PUSH2 0x1536 JUMP JUMPDEST SWAP3 PUSH1 0x20 DUP2 DUP6 SUB SWAP2 ADD MSTORE PUSH2 0x1536 JUMP JUMPDEST DUP14 DUP2 SUB PUSH1 0x40 DUP16 ADD MSTORE SWAP2 PUSH2 0x1536 JUMP JUMPDEST SWAP2 DUP11 DUP4 SUB PUSH1 0x60 DUP13 ADD MSTORE PUSH2 0x1536 JUMP JUMPDEST SWAP2 DUP8 DUP4 SUB PUSH1 0x80 DUP10 ADD MSTORE PUSH2 0x1536 JUMP JUMPDEST SWAP4 ADD MSTORE JUMP JUMPDEST SWAP1 PUSH8 0xFFFFFFFFFFFFFFFF PUSH1 0x40 SHL DUP3 SLOAD SWAP2 PUSH1 0x40 SHL AND SWAP1 PUSH8 0xFFFFFFFFFFFFFFFF PUSH1 0x40 SHL NOT AND OR SWAP1 SSTORE JUMP JUMPDEST ISZERO PUSH2 0x15EF JUMPI JUMP JUMPDEST PUSH1 0x40 MLOAD PUSH3 0x461BCD PUSH1 0xE5 SHL DUP2 MSTORE PUSH1 0x20 PUSH1 0x4 DUP3 ADD MSTORE PUSH1 0x18 PUSH1 0x24 DUP3 ADD MSTORE PUSH32 0x436F6D706C61696E7420646F6573206E6F742065786973740000000000000000 PUSH1 0x44 DUP3 ADD MSTORE PUSH1 0x64 SWAP1 REVERT INVALID LOG2 PUSH5 0x6970667358 0x22 SLT KECCAK256 0x4D NOT 0xFC SELFDESTRUCT PUSH30 0x4075ED4D1ECDD6898BC2B2F3B0F0607C184D1B9DFF55C4AE7DC63D64736F PUSH13 0x63430008130033000000000000 "},"methodIdentifiers":{"assignComplaint(string,string)":"2e014521","checkComplaintExists(string)":"28cae1b1","checkUserExists(string)":"4c5b3984","complaintExists(bytes32)":"adad7b54","complaints(bytes32)":"e307bf2a","createAuditLog(string,string,string,string,string)":"939e9ebc","getComplaint(string)":"05fd4b81","getCounts()":"a5373899","getUser(string)":"31feb671","registerComplaint(string,string,string,string,string,uint8,bytes32,bytes32,bytes32,bool,string,string,string,string,string)":"64cb2e5a","registerUser(string,string,string,bytes32,bytes32,bytes32,string,string,string,string,string)":"dae771e8","resolveComplaint(string)":"0c95f24a","totalAuditLogs()":"d9309285","totalComplaints()":"a886b398","totalUsers()":"bff1f9e1","updateComplaintStatus(string,uint8,string)":"0fe80047","updateUpvoteCount(string,uint32)":"42ef72ed","userExists(bytes32)":"a2e8452c","users(bytes32)":"cea6ab98","verifyHash(string,bytes32)":"b89207e0"}}}}}